:1000000013C01AC019C018C017C016C015C07CC0D4
:1000100013C012C011C010C00FC00EC00DC00CC064
:1000200072C00AC009C008C011241FBECFEFD1E0C2
:10003000DEBFCDBF6AD0BAC0E3CF83B7897F84600B
:1000400083BF83B7816083BF889583B78E7F83BF6B
:1000500008958A3008F089E0982F9770883008F06A
:100060009062F894A89584B7877F84BF80916000E0
:100070008861809360009064909360007894089504
:10008000F894A89584B7877F84BFE0E6F0E080818C
:1000900080658083108278940895DBDFCEDFF0CF17
:1000A0008F706111806480937C0083B7897F826048
:1000B00083BF83B7816083BF889583B78E7F83BFFB
:1000C000809178002091790090E0922B089585B17D
:1000D0008C6785B988B1876F88B98AB18F6E8AB904
:1000E00084B1836884B9EAE7F0E08081826080832C
:1000F0008081816080838081806880838081886046
:1001000080837894089518951895E1DF60E083E086
:10011000C7DF803322E0920730F0589A843422E01F
:10012000920718F408C0589806C0599A8E3422E0F5
:10013000920718F408C0599806C05A9A883522E0E8
:10014000920718F408C05A9806C05B9A823622E0DB
:10015000920718F408C05B9806C02F9A8C3622E0EC
:10016000920718F408C02F9806C05D9A863722E0DF
:10017000920718F408C05D9806C05E9A803822E0A5
:10018000920718F408C05E9806C05F9A8A3822E089
:10019000920718F408C05F9806C0289A84399240E4
:1001A00018F0299AB3CF28982998B0CFF894FFCFA8
:00000001FF
